{
  "_format": "hh-sol-artifact-1",
  "contractName": "PositionsManagerForCompound",
  "sourceName": "contracts/compound/PositionsManagerForCompound.sol",
  "abi": [
    {
      "inputs": [
        {
          "internalType": "address",
          "name": "_compoundMarketsManager",
          "type": "address"
        },
        {
          "internalType": "address",
          "name": "_proxyComptrollerAddress",
          "type": "address"
        },
        {
          "internalType": "address",
          "name": "_updatePositionsAddress",
          "type": "address"
        }
      ],
      "stateMutability": "nonpayable",
      "type": "constructor"
    },
    {
      "anonymous": false,
      "inputs": [
        {
          "indexed": true,
          "internalType": "address",
          "name": "_account",
          "type": "address"
        },
        {
          "indexed": true,
          "internalType": "address",
          "name": "_cTokenAddress",
          "type": "address"
        },
        {
          "indexed": false,
          "internalType": "uint256",
          "name": "_amount",
          "type": "uint256"
        }
      ],
      "name": "Borrowed",
      "type": "event"
    },
    {
      "anonymous": false,
      "inputs": [
        {
          "indexed": true,
          "internalType": "address",
          "name": "_account",
          "type": "address"
        },
        {
          "indexed": true,
          "internalType": "address",
          "name": "_cTokenAddress",
          "type": "address"
        },
        {
          "indexed": false,
          "internalType": "uint256",
          "name": "_amountAddedOnPool",
          "type": "uint256"
        },
        {
          "indexed": false,
          "internalType": "uint256",
          "name": "_amountAddedInP2P",
          "type": "uint256"
        },
        {
          "indexed": false,
          "internalType": "uint256",
          "name": "_amountRemovedFromPool",
          "type": "uint256"
        },
        {
          "indexed": false,
          "internalType": "uint256",
          "name": "_amountRemovedFromP2P",
          "type": "uint256"
        },
        {
          "indexed": false,
          "internalType": "uint256",
          "name": "_p2pExchangeRate",
          "type": "uint256"
        },
        {
          "indexed": false,
          "internalType": "uint256",
          "name": "_borrowIndex",
          "type": "uint256"
        }
      ],
      "name": "BorrowerPositionUpdated",
      "type": "event"
    },
    {
      "anonymous": false,
      "inputs": [
        {
          "indexed": true,
          "internalType": "address",
          "name": "_liquidator",
          "type": "address"
        },
        {
          "indexed": true,
          "internalType": "address",
          "name": "_liquidatee",
          "type": "address"
        },
        {
          "indexed": false,
          "internalType": "uint256",
          "name": "_amountRepaid",
          "type": "uint256"
        },
        {
          "indexed": false,
          "internalType": "address",
          "name": "_cTokenBorrowedAddress",
          "type": "address"
        },
        {
          "indexed": false,
          "internalType": "uint256",
          "name": "_amountSeized",
          "type": "uint256"
        },
        {
          "indexed": false,
          "internalType": "address",
          "name": "_cTokenCollateralAddress",
          "type": "address"
        }
      ],
      "name": "Liquidated",
      "type": "event"
    },
    {
      "anonymous": false,
      "inputs": [
        {
          "indexed": true,
          "internalType": "address",
          "name": "_account",
          "type": "address"
        },
        {
          "indexed": true,
          "internalType": "address",
          "name": "_cTokenAddress",
          "type": "address"
        },
        {
          "indexed": false,
          "internalType": "uint256",
          "name": "_amount",
          "type": "uint256"
        }
      ],
      "name": "Repaid",
      "type": "event"
    },
    {
      "anonymous": false,
      "inputs": [
        {
          "indexed": true,
          "internalType": "address",
          "name": "_account",
          "type": "address"
        },
        {
          "indexed": true,
          "internalType": "address",
          "name": "_cTokenAddress",
          "type": "address"
        },
        {
          "indexed": false,
          "internalType": "uint256",
          "name": "_amount",
          "type": "uint256"
        }
      ],
      "name": "Supplied",
      "type": "event"
    },
    {
      "anonymous": false,
      "inputs": [
        {
          "indexed": true,
          "internalType": "address",
          "name": "_account",
          "type": "address"
        },
        {
          "indexed": true,
          "internalType": "address",
          "name": "_cTokenAddress",
          "type": "address"
        },
        {
          "indexed": false,
          "internalType": "uint256",
          "name": "_amountAddedOnPool",
          "type": "uint256"
        },
        {
          "indexed": false,
          "internalType": "uint256",
          "name": "_amountAddedInP2P",
          "type": "uint256"
        },
        {
          "indexed": false,
          "internalType": "uint256",
          "name": "_amountRemovedFromPool",
          "type": "uint256"
        },
        {
          "indexed": false,
          "internalType": "uint256",
          "name": "_amountRemovedFromP2P",
          "type": "uint256"
        },
        {
          "indexed": false,
          "internalType": "uint256",
          "name": "_p2pExchangeRate",
          "type": "uint256"
        },
        {
          "indexed": false,
          "internalType": "uint256",
          "name": "_cTokenExchangeRate",
          "type": "uint256"
        }
      ],
      "name": "SupplierPositionUpdated",
      "type": "event"
    },
    {
      "anonymous": false,
      "inputs": [
        {
          "indexed": true,
          "internalType": "address",
          "name": "_account",
          "type": "address"
        },
        {
          "indexed": true,
          "internalType": "address",
          "name": "_cTokenAddress",
          "type": "address"
        },
        {
          "indexed": false,
          "internalType": "uint256",
          "name": "_amount",
          "type": "uint256"
        }
      ],
      "name": "Withdrawn",
      "type": "event"
    },
    {
      "inputs": [],
      "name": "CTOKEN_DECIMALS",
      "outputs": [
        {
          "internalType": "uint8",
          "name": "",
          "type": "uint8"
        }
      ],
      "stateMutability": "view",
      "type": "function"
    },
    {
      "inputs": [],
      "name": "NMAX",
      "outputs": [
        {
          "internalType": "uint16",
          "name": "",
          "type": "uint16"
        }
      ],
      "stateMutability": "view",
      "type": "function"
    },
    {
      "inputs": [
        {
          "internalType": "address",
          "name": "",
          "type": "address"
        },
        {
          "internalType": "address",
          "name": "",
          "type": "address"
        }
      ],
      "name": "accountMembership",
      "outputs": [
        {
          "internalType": "bool",
          "name": "",
          "type": "bool"
        }
      ],
      "stateMutability": "view",
      "type": "function"
    },
    {
      "inputs": [
        {
          "internalType": "address",
          "name": "_cTokenAddress",
          "type": "address"
        },
        {
          "internalType": "uint256",
          "name": "_amount",
          "type": "uint256"
        }
      ],
      "name": "borrow",
      "outputs": [],
      "stateMutability": "nonpayable",
      "type": "function"
    },
    {
      "inputs": [
        {
          "internalType": "address",
          "name": "",
          "type": "address"
        },
        {
          "internalType": "address",
          "name": "",
          "type": "address"
        }
      ],
      "name": "borrowBalanceInOf",
      "outputs": [
        {
          "internalType": "uint256",
          "name": "inP2P",
          "type": "uint256"
        },
        {
          "internalType": "uint256",
          "name": "onPool",
          "type": "uint256"
        }
      ],
      "stateMutability": "view",
      "type": "function"
    },
    {
      "inputs": [],
      "name": "comptroller",
      "outputs": [
        {
          "internalType": "contract IComptroller",
          "name": "",
          "type": "address"
        }
      ],
      "stateMutability": "view",
      "type": "function"
    },
    {
      "inputs": [
        {
          "internalType": "address",
          "name": "_cTokenAddress",
          "type": "address"
        }
      ],
      "name": "createMarket",
      "outputs": [
        {
          "internalType": "uint256[]",
          "name": "",
          "type": "uint256[]"
        }
      ],
      "stateMutability": "nonpayable",
      "type": "function"
    },
    {
      "inputs": [
        {
          "internalType": "address",
          "name": "",
          "type": "address"
        },
        {
          "internalType": "uint256",
          "name": "",
          "type": "uint256"
        }
      ],
      "name": "enteredMarkets",
      "outputs": [
        {
          "internalType": "address",
          "name": "",
          "type": "address"
        }
      ],
      "stateMutability": "view",
      "type": "function"
    },
    {
      "inputs": [
        {
          "internalType": "address",
          "name": "_cTokenBorrowedAddress",
          "type": "address"
        },
        {
          "internalType": "address",
          "name": "_cTokenCollateralAddress",
          "type": "address"
        },
        {
          "internalType": "address",
          "name": "_borrower",
          "type": "address"
        },
        {
          "internalType": "uint256",
          "name": "_amount",
          "type": "uint256"
        }
      ],
      "name": "liquidate",
      "outputs": [],
      "stateMutability": "nonpayable",
      "type": "function"
    },
    {
      "inputs": [],
      "name": "marketsManagerForCompound",
      "outputs": [
        {
          "internalType": "contract IMarketsManagerForCompound",
          "name": "",
          "type": "address"
        }
      ],
      "stateMutability": "view",
      "type": "function"
    },
    {
      "inputs": [
        {
          "internalType": "address",
          "name": "_cTokenAddress",
          "type": "address"
        },
        {
          "internalType": "uint256",
          "name": "_amount",
          "type": "uint256"
        }
      ],
      "name": "repay",
      "outputs": [],
      "stateMutability": "nonpayable",
      "type": "function"
    },
    {
      "inputs": [
        {
          "internalType": "uint16",
          "name": "_newMaxNumber",
          "type": "uint16"
        }
      ],
      "name": "setMaxNumberOfUsersInTree",
      "outputs": [],
      "stateMutability": "nonpayable",
      "type": "function"
    },
    {
      "inputs": [
        {
          "internalType": "address",
          "name": "_cTokenAddress",
          "type": "address"
        },
        {
          "internalType": "uint256",
          "name": "_newThreshold",
          "type": "uint256"
        }
      ],
      "name": "setThreshold",
      "outputs": [],
      "stateMutability": "nonpayable",
      "type": "function"
    },
    {
      "inputs": [
        {
          "internalType": "address",
          "name": "_cTokenAddress",
          "type": "address"
        },
        {
          "internalType": "uint256",
          "name": "_amount",
          "type": "uint256"
        }
      ],
      "name": "supply",
      "outputs": [],
      "stateMutability": "nonpayable",
      "type": "function"
    },
    {
      "inputs": [
        {
          "internalType": "address",
          "name": "",
          "type": "address"
        },
        {
          "internalType": "address",
          "name": "",
          "type": "address"
        }
      ],
      "name": "supplyBalanceInOf",
      "outputs": [
        {
          "internalType": "uint256",
          "name": "inP2P",
          "type": "uint256"
        },
        {
          "internalType": "uint256",
          "name": "onPool",
          "type": "uint256"
        }
      ],
      "stateMutability": "view",
      "type": "function"
    },
    {
      "inputs": [
        {
          "internalType": "address",
          "name": "",
          "type": "address"
        }
      ],
      "name": "threshold",
      "outputs": [
        {
          "internalType": "uint256",
          "name": "",
          "type": "uint256"
        }
      ],
      "stateMutability": "view",
      "type": "function"
    },
    {
      "inputs": [],
      "name": "updatePositions",
      "outputs": [
        {
          "internalType": "contract IUpdatePositions",
          "name": "",
          "type": "address"
        }
      ],
      "stateMutability": "view",
      "type": "function"
    },
    {
      "inputs": [
        {
          "internalType": "address",
          "name": "_cTokenAddress",
          "type": "address"
        },
        {
          "internalType": "uint256",
          "name": "_amount",
          "type": "uint256"
        }
      ],
      "name": "withdraw",
      "outputs": [],
      "stateMutability": "nonpayable",
      "type": "function"
    }
  ],
  "bytecode": "0x60806040526001805461ffff19166103e81790553480156200002057600080fd5b506040516200545b3803806200545b8339810160408190526200004391620000a8565b6001600055601180546001600160a01b039485166001600160a01b0319918216179091556010805493851693821693909317909255600f8054919093169116179055620000f2565b80516001600160a01b0381168114620000a357600080fd5b919050565b600080600060608486031215620000be57600080fd5b620000c9846200008b565b9250620000d9602085016200008b565b9150620000e9604085016200008b565b90509250925092565b61535980620001026000396000f3fe608060405234801561001057600080fd5b50600436106101165760003560e01c80639df5a1f2116100a2578063c86ec2bf11610071578063c86ec2bf146102b2578063e34b5145146102e0578063e501ed04146102f3578063f2b9fdb814610325578063f3fef3a31461033857600080fd5b80639df5a1f21461025f578063aab3f86814610279578063b23a76cc1461028c578063b866f7291461029f57600080fd5b80635fe3b567116100e95780635fe3b567146101945780637c108333146101a7578063947574ac146101c75780639ace3ada1461020e5780639d8799901461024c57600080fd5b806312e5222c1461011b57806322867d781461014157806330422cb5146101565780634b8a352914610181575b600080fd5b6001546101299061ffff1681565b60405161ffff90911681526020015b60405180910390f35b61015461014f366004614dc1565b61034b565b005b600f54610169906001600160a01b031681565b6040516001600160a01b039091168152602001610138565b61015461018f366004614dc1565b610390565b601054610169906001600160a01b031681565b6101ba6101b5366004614cfd565b610952565b6040516101389190614ff7565b6101f96101d5366004614d37565b600b6020908152600092835260408084209091529082529020805460019091015482565b60408051928352602083019190915201610138565b61023c61021c366004614d37565b600c60209081526000928352604080842090915290825290205460ff1681565b6040519015158152602001610138565b61015461025a366004614dc1565b610a6b565b610267600881565b60405160ff9091168152602001610138565b610154610287366004614d70565b610acc565b61015461029a366004614f09565b611295565b601154610169906001600160a01b031681565b6102d26102c0366004614cfd565b600e6020526000908152604090205481565b604051908152602001610138565b6101696102ee366004614dc1565b6112f2565b6101f9610301366004614d37565b600a6020908152600092835260408084209091529082529020805460019091015482565b610154610333366004614dc1565b61132a565b610154610346366004614dc1565b61183f565b600260005414156103775760405162461bcd60e51b815260040161036e9061508a565b60405180910390fd5b6002600055610387823383611873565b50506001600055565b600260005414156103b35760405162461bcd60e51b815260040161036e9061508a565b6002600055601154604051637c01394b60e11b81526001600160a01b0380851660048301528492169063f802729690602401602060405180830381600087803b1580156103ff57600080fd5b505af1158015610413573d6000803e3d6000fd5b505050506040513d601f19601f820116820180604052508101906104379190614eb2565b604051806040016040528060018152602001600d60fa1b8152509061046f5760405162461bcd60e51b815260040161036e9190615057565b508282600e6000836001600160a01b03166001600160a01b0316815260200190815260200160002054811015604051806040016040528060018152602001603560f81b815250906104d35760405162461bcd60e51b815260040161036e9190615057565b506104de8533612007565b6104eb3386600087612094565b6040518481526001600160a01b0386169033907f3fc499aeb0bb1cb58b6de8b02b3f86f4e7394e9690bef0110e32ced8a56310459060200160405180910390a360008590506000816001600160a01b0316636f307dc36040518163ffffffff1660e01b815260040160206040518083038186803b15801561056b57600080fd5b505afa15801561057f573d6000803e3d6000fd5b505050506040513d601f19601f820116820180604052508101906105a39190614d1a565b6001600160a01b03881660009081526003602052604090819020905163bfeb108d60e01b81526004810191909152909150869073__$d77881dafef155fbaa5a836424b2a25249$__9063bfeb108d9060240160206040518083038186803b15801561060d57600080fd5b505af4158015610621573d6000803e3d6000fd5b505050506040513d601f19601f820116820180604052508101906106459190614eb2565b156107705760115460405163303e07b560e11b81526001600160a01b038a81166004830152600092169063607c0f6a90602401602060405180830381600087803b15801561069257600080fd5b505af11580156106a6573d6000803e3d6000fd5b505050506040513d601f19601f820116820180604052508101906106ca9190614f2d565b90506106d689896120ee565b915060006106e4838a615208565b9050801561076d576106f681836124f2565b6001600160a01b038b166000908152600b60209081526040808320338452909152812080549091906107299084906150c1565b90915550506040516001600160a01b038b169033906000805160206152e483398151915290610764906000908690829081908a90829061502f565b60405180910390a35b50505b80156109255760405163317afabb60e21b8152600481018290526001600160a01b0384169063c5ebeaec90602401602060405180830381600087803b1580156107b857600080fd5b505af11580156107cc573d6000803e3d6000fd5b505050506040513d601f19601f820116820180604052508101906107f09190614f2d565b604080518082019091526002815261313560f01b602082015290156108285760405162461bcd60e51b815260040161036e9190615057565b506000836001600160a01b031663aa5af0fd6040518163ffffffff1660e01b8152600401602060405180830381600087803b15801561086657600080fd5b505af115801561087a573d6000803e3d6000fd5b505050506040513d601f19601f8201168201806040525081019061089e9190614f2d565b90506108aa82826124f2565b6001600160a01b038a166000908152600b60209081526040808320338452909152812060010180549091906108e09084906150c1565b90915550506040516001600160a01b038a169033906000805160206152e48339815191529061091b908690600090819081908990829061502f565b60405180910390a3505b61092f8833612537565b6109436001600160a01b0383163389612616565b50506001600055505050505050565b6011546040805180820190915260018152601b60f91b60208201526060916001600160a01b031633146109985760405162461bcd60e51b815260040161036e9190615057565b506040805160018082528183019092526000916020808301908036833701905050905082816000815181106109cf576109cf61529f565b6001600160a01b039283166020918202929092010152601054604051631853304760e31b815291169063c299823890610a0c908490600401614faa565b600060405180830381600087803b158015610a2657600080fd5b505af1158015610a3a573d6000803e3d6000fd5b505050506040513d6000823e601f3d908101601f19168201604052610a629190810190614ded565b9150505b919050565b6011546040805180820190915260018152601b60f91b6020820152906001600160a01b03163314610aaf5760405162461bcd60e51b815260040161036e9190615057565b506001600160a01b039091166000908152600e6020526040902055565b60026000541415610aef5760405162461bcd60e51b815260040161036e9061508a565b60026000556040805180820190915260018152603760f81b602082015281610b2a5760405162461bcd60e51b815260040161036e9190615057565b50600080610b3c84600080600061267e565b5091509150808211604051806040016040528060018152602001600760fb1b81525090610b7c5760405162461bcd60e51b815260040161036e9190615057565b50610baf6040518060a0016040528060008152602001600081526020016000815260200160008152602001600081525090565b60115460405163303e07b560e11b81526001600160a01b038981166004830152610c5c92169063607c0f6a90602401602060405180830381600087803b158015610bf857600080fd5b505af1158015610c0c573d6000803e3d6000fd5b505050506040513d601f19601f82011682018060405250810190610c309190614f2d565b6001600160a01b03808a166000908152600b60209081526040808320938b168352929052205490612cdb565b610d01886001600160a01b031663aa5af0fd6040518163ffffffff1660e01b8152600401602060405180830381600087803b158015610c9a57600080fd5b505af1158015610cae573d6000803e3d6000fd5b505050506040513d601f19601f82011682018060405250810190610cd29190614f2d565b6001600160a01b03808b166000908152600b60209081526040808320938c168352929052206001015490612cdb565b610d0b91906150c1565b81526010546040805163743aaa2360e11b81529051610d95926001600160a01b03169163e87554469160048083019260209291908290030181600087803b158015610d5557600080fd5b505af1158015610d69573d6000803e3d6000fd5b505050506040513d601f19601f82011682018060405250810190610d8d9190614f2d565b825190612cdb565b841115604051806040016040528060018152602001603960f81b81525090610dd05760405162461bcd60e51b815260040161036e9190615057565b50610ddc878686611873565b601054604080516307dc0d1d60e41b815290516000926001600160a01b031691637dc0d1d091600480830192602092919082900301818787803b158015610e2257600080fd5b505af1158015610e36573d6000803e3d6000fd5b505050506040513d601f19601f82011682018060405250810190610e5a9190614d1a565b60405163fc57d4df60e01b81526001600160a01b0389811660048301529192509082169063fc57d4df9060240160206040518083038186803b158015610e9f57600080fd5b505afa158015610eb3573d6000803e3d6000fd5b505050506040513d601f19601f82011682018060405250810190610ed79190614f2d565b606083015260405163fc57d4df60e01b81526001600160a01b03898116600483015282169063fc57d4df9060240160206040518083038186803b158015610f1d57600080fd5b505afa158015610f31573d6000803e3d6000fd5b505050506040513d601f19601f82011682018060405250810190610f559190614f2d565b6040830152606082015115801590610f705750604082015115155b60405180604001604052806002815260200161031360f41b81525090610fa95760405162461bcd60e51b815260040161036e9190615057565b50600087905061105e8360600151611058601060009054906101000a90046001600160a01b03166001600160a01b0316634ada90af6040518163ffffffff1660e01b8152600401602060405180830381600087803b15801561100a57600080fd5b505af115801561101e573d6000803e3d6000fd5b505050506040513d601f19601f820116820180604052508101906110429190614f2d565b6040870151611052908b90612cdb565b90612cdb565b906124f2565b83602001818152505061110a816001600160a01b031663182df0f56040518163ffffffff1660e01b815260040160206040518083038186803b1580156110a357600080fd5b505afa1580156110b7573d6000803e3d6000fd5b505050506040513d601f19601f820116820180604052508101906110db9190614f2d565b6001600160a01b03808b166000908152600a60209081526040808320938d168352929052206001015490612cdb565b60808401526011546040516386779faf60e01b81526001600160a01b038a811660048301526000926111c0929116906386779faf90602401602060405180830381600087803b15801561115c57600080fd5b505af1158015611170573d6000803e3d6000fd5b505050506040513d601f19601f820116820180604052508101906111949190614f2d565b6001600160a01b03808c166000908152600a60209081526040808320938e168352929052205490612cdb565b84608001516111cf91906150c1565b9050808460200151111560405180604001604052806002815260200161031360f41b815250906112125760405162461bcd60e51b815260040161036e9190615057565b50602080850151604080518a81526001600160a01b038e811694820194909452908101919091528a821660608201529089169033907f0faf8457a629c914788088ce89fee895fb0c27a621efc744e4571c76179869b19060800160405180910390a36112848985602001518a33612cf0565b505060016000555050505050505050565b6011546040805180820190915260018152601b60f91b6020820152906001600160a01b031633146112d95760405162461bcd60e51b815260040161036e9190615057565b506001805461ffff191661ffff92909216919091179055565b600d602052816000526040600020818154811061130e57600080fd5b6000918252602090912001546001600160a01b03169150829050565b6002600054141561134d5760405162461bcd60e51b815260040161036e9061508a565b6002600055601154604051637c01394b60e11b81526001600160a01b0380851660048301528492169063f802729690602401602060405180830381600087803b15801561139957600080fd5b505af11580156113ad573d6000803e3d6000fd5b505050506040513d601f19601f820116820180604052508101906113d19190614eb2565b604051806040016040528060018152602001600d60fa1b815250906114095760405162461bcd60e51b815260040161036e9190615057565b508282600e6000836001600160a01b03166001600160a01b0316815260200190815260200160002054811015604051806040016040528060018152602001603560f81b8152509061146d5760405162461bcd60e51b815260040161036e9190615057565b506114788533612007565b60008590506000816001600160a01b0316636f307dc36040518163ffffffff1660e01b815260040160206040518083038186803b1580156114b857600080fd5b505afa1580156114cc573d6000803e3d6000fd5b505050506040513d601f19601f820116820180604052508101906114f09190614d1a565b90506115076001600160a01b03821633308961347b565b6040518681526001600160a01b0388169033907f523322d7afb07cee28d04498651096af062004e1f14315eff2e4a60290dfadda9060200160405180910390a36000826001600160a01b031663bd6d894d6040518163ffffffff1660e01b8152600401602060405180830381600087803b15801561158457600080fd5b505af1158015611598573d6000803e3d6000fd5b505050506040513d601f19601f820116820180604052508101906115bc9190614f2d565b6001600160a01b03891660009081526005602052604090819020905163bfeb108d60e01b81526004810191909152909150879073__$d77881dafef155fbaa5a836424b2a25249$__9063bfeb108d9060240160206040518083038186803b15801561162657600080fd5b505af415801561163a573d6000803e3d6000fd5b505050506040513d601f19601f8201168201806040525081019061165e9190614eb2565b15611789576011546040516386779faf60e01b81526001600160a01b038b8116600483015260009216906386779faf90602401602060405180830381600087803b1580156116ab57600080fd5b505af11580156116bf573d6000803e3d6000fd5b505050506040513d601f19601f820116820180604052508101906116e39190614f2d565b90506116ef8a8a6134b3565b915060006116fd838b615208565b905080156117865761170f81836124f2565b6001600160a01b038c166000908152600a60209081526040808320338452909152812080549091906117429084906150c1565b90915550506040516001600160a01b038c169033906000805160206153048339815191529061177d906000908690829081908a90829061502f565b60405180910390a35b50505b80156118255761179981836124f2565b6001600160a01b038a166000908152600a60209081526040808320338452909152812060010180549091906117cf9084906150c1565b909155506117df90508982613a77565b886001600160a01b0316336001600160a01b0316600080516020615304833981519152836000806000808960405161181c9695949392919061502f565b60405180910390a35b61182f8933613e28565b5050600160005550505050505050565b600260005414156118625760405162461bcd60e51b815260040161036e9061508a565b600260005561038782823380612cf0565b601154604051637c01394b60e11b81526001600160a01b0380861660048301528592169063f802729690602401602060405180830381600087803b1580156118ba57600080fd5b505af11580156118ce573d6000803e3d6000fd5b505050506040513d601f19601f820116820180604052508101906118f29190614eb2565b604051806040016040528060018152602001600d60fa1b8152509061192a5760405162461bcd60e51b815260040161036e9190615057565b506040805180820190915260018152603760f81b6020820152826119615760405162461bcd60e51b815260040161036e9190615057565b5060008490506000816001600160a01b0316636f307dc36040518163ffffffff1660e01b815260040160206040518083038186803b1580156119a257600080fd5b505afa1580156119b6573d6000803e3d6000fd5b505050506040513d601f19601f820116820180604052508101906119da9190614d1a565b90506119f16001600160a01b03821633308761347b565b6001600160a01b038087166000908152600b6020908152604080832093891683529290522060010154849015611d0f576000836001600160a01b031663aa5af0fd6040518163ffffffff1660e01b8152600401602060405180830381600087803b158015611a5e57600080fd5b505af1158015611a72573d6000803e3d6000fd5b505050506040513d601f19601f82011682018060405250810190611a969190614f2d565b6001600160a01b03808a166000908152600b60209081526040808320938c1683529290529081206001015491925090611acf9083612cdb565b9050808711611c0057611aec6001600160a01b0385168a89613f01565b60405163073a938160e11b8152600481018890526001600160a01b03861690630e75270290602401602060405180830381600087803b158015611b2e57600080fd5b505af1158015611b42573d6000803e3d6000fd5b505050506040513d601f19601f82011682018060405250810190611b669190614f2d565b50611b7187836124f2565b6001600160a01b03808b166000908152600b60209081526040808320938d1683529290529081206001018054909190611bab908490615208565b9250508190555060009250886001600160a01b0316886001600160a01b03166000805160206152e48339815191526000808b60008089604051611bf39695949392919061502f565b60405180910390a3611d0c565b611c146001600160a01b0385168a83613f01565b60405163073a938160e11b8152600481018290526001600160a01b03861690630e75270290602401602060405180830381600087803b158015611c5657600080fd5b505af1158015611c6a573d6000803e3d6000fd5b505050506040513d601f19601f82011682018060405250810190611c8e9190614f2d565b506001600160a01b03808a166000908152600b60209081526040808320938c16835292905290812060010155611cc48184615208565b9250886001600160a01b0316886001600160a01b03166000805160206152e48339815191526000808560008089604051611d039695949392919061502f565b60405180910390a35b50505b8015611fa7576011546040516386779faf60e01b81526001600160a01b03898116600483015260009216906386779faf90602401602060405180830381600087803b158015611d5d57600080fd5b505af1158015611d71573d6000803e3d6000fd5b505050506040513d601f19601f82011682018060405250810190611d959190614f2d565b6040516305eff7ef60e21b81523060048201529091506000906001600160a01b038616906317bfdfbc90602401602060405180830381600087803b158015611ddc57600080fd5b505af1158015611df0573d6000803e3d6000fd5b505050506040513d601f19601f82011682018060405250810190611e149190614f2d565b9050808311611ebb57611e2789846134b3565b50611e3283836124f2565b6001600160a01b03808b166000908152600b60209081526040808320938d1683529290529081208054909190611e69908490615208565b92505081905550886001600160a01b0316886001600160a01b03166000805160206152e4833981519152600080600088886000604051611eae9695949392919061502f565b60405180910390a3611fa4565b611ec589826134b3565b50611ed083836124f2565b6001600160a01b03808b166000908152600b60209081526040808320938d1683529290529081208054909190611f07908490615208565b92505081905550886001600160a01b0316886001600160a01b03166000805160206152e4833981519152600080600088886000604051611f4c9695949392919061502f565b60405180910390a3611f5e8184615208565b9250611f6a8984614025565b604080518082019091526002815261313160f01b60208201529015611fa25760405162461bcd60e51b815260040161036e9190615057565b505b50505b611fb18787612537565b866001600160a01b0316866001600160a01b03167f0a3fbbea70e93f2daafa3102f5c9a1b8315e6d7a1e43e4bc020bc1162327470a87604051611ff691815260200190565b60405180910390a350505050505050565b6001600160a01b038083166000908152600c602090815260408083209385168352929052205460ff16612090576001600160a01b038083166000818152600c602090815260408083209486168352938152838220805460ff19166001908117909155600d8252938220805494850181558252902090910180546001600160a01b03191690911790555b5050565b6000806120a38686868661267e565b50915091508082111560405180604001604052806002815260200161189960f11b815250906120e55760405162461bcd60e51b815260040161036e9190615057565b50505050505050565b60115460405163303e07b560e11b81526001600160a01b038085166004830152839285926000929091169063607c0f6a90602401602060405180830381600087803b15801561213c57600080fd5b505af1158015612150573d6000803e3d6000fd5b505050506040513d601f19601f820116820180604052508101906121749190614f2d565b90506000826001600160a01b031663bd6d894d6040518163ffffffff1660e01b8152600401602060405180830381600087803b1580156121b357600080fd5b505af11580156121c7573d6000803e3d6000fd5b505050506040513d601f19601f820116820180604052508101906121eb9190614f2d565b6001600160a01b0387166000908152600360205260408082209051631573ce1f60e11b815260048101919091529192509073__$d77881dafef155fbaa5a836424b2a25249$__90632ae79c3e90602401604080518083038186803b15801561225257600080fd5b505af4158015612266573d6000803e3d6000fd5b505050506040513d601f19601f8201168201806040525081019061228a9190614f46565b91505060005b6000861180156122a857506001600160a01b03821615155b80156122b9575060015461ffff1681105b156124d457806122c88161526e565b6001600160a01b03808b166000908152600a6020908152604080832093881683529290529081206001015491935091506123029085612cdb565b9050600087821161233f57506001600160a01b03808a166000908152600a602090815260408083209387168352929052908120600101558061238b565b508661234b81866124f2565b6001600160a01b03808c166000908152600a6020908152604080832093891683529290529081206001018054909190612385908490615208565b90915550505b6123958189615208565b97506123a181876124f2565b6001600160a01b03808c166000908152600a60209081526040808320938916835292905290812080549091906123d89084906150c1565b909155506123e890508a85613e28565b896001600160a01b0316846001600160a01b03166000805160206153048339815191526000848560008c8c6040516124259695949392919061502f565b60405180910390a36001600160a01b038a16600090815260036020526040908190209051631573ce1f60e11b8152600481019190915273__$d77881dafef155fbaa5a836424b2a25249$__90632ae79c3e90602401604080518083038186803b15801561249157600080fd5b505af41580156124a5573d6000803e3d6000fd5b505050506040513d601f19601f820116820180604052508101906124c99190614f46565b945061229092505050565b6124e7886124e2888a615208565b6143d5565b505050505092915050565b6000670de0b6b3a76400008261250885836151e9565b61251a90670de0b6b3a76400006151e9565b61252491906150d9565b61252e91906150d9565b90505b92915050565b600f546040516001600160a01b0384811660248301528381166044830152600092169060640160408051601f198184030181529181526020820180516001600160e01b031663db43526360e01b179052516125929190614f8e565b600060405180830381855af49150503d80600081146125cd576040519150601f19603f3d011682016040523d82523d6000602084013e6125d2565b606091505b505090508060405180604001604052806002815260200161313360f01b815250906126105760405162461bcd60e51b815260040161036e9190615057565b50505050565b6040516001600160a01b03831660248201526044810182905261267990849063a9059cbb60e01b906064015b60408051601f198184030181529190526020810180516001600160e01b03166001600160e01b03199093169290921790915261466e565b505050565b60008060006126db60405180610120016040528060008152602001600081526020016000815260200160008152602001600081526020016000815260200160006001600160a01b0316815260200160008152602001600081525090565b601054604080516307dc0d1d60e41b815290516000926001600160a01b031691637dc0d1d091600480830192602092919082900301818787803b15801561272157600080fd5b505af1158015612735573d6000803e3d6000fd5b505050506040513d601f19601f820116820180604052508101906127599190614d1a565b905060005b6001600160a01b038a166000908152600d6020526040902054811015612ca4576001600160a01b038a166000908152600d602052604090208054829081106127a8576127a861529f565b6000918252602090912001546001600160a01b0390811660c085018190526011546040516386779faf60e01b81526004810192909252909116906386779faf90602401602060405180830381600087803b15801561280557600080fd5b505af1158015612819573d6000803e3d6000fd5b505050506040513d601f19601f8201168201806040525081019061283d9190614f2d565b60e0840181905260c08401516001600160a01b039081166000908152600b60209081526040808320938f168352929052205461287891612cdb565b6129508460c001516001600160a01b031663aa5af0fd6040518163ffffffff1660e01b8152600401602060405180830381600087803b1580156128ba57600080fd5b505af11580156128ce573d6000803e3d6000fd5b505050506040513d601f19601f820116820180604052508101906128f29190614f2d565b600b60008760c001516001600160a01b03166001600160a01b0316815260200190815260200160002060008e6001600160a01b03166001600160a01b0316815260200190815260200160002060010154612cdb90919063ffffffff16565b61295a91906150c1565b608084015260e083015160c08401516001600160a01b039081166000908152600a60209081526040808320938f168352929052205461299891612cdb565b612a708460c001516001600160a01b031663bd6d894d6040518163ffffffff1660e01b8152600401602060405180830381600087803b1580156129da57600080fd5b505af11580156129ee573d6000803e3d6000fd5b505050506040513d601f19601f82011682018060405250810190612a129190614f2d565b600a60008760c001516001600160a01b03166001600160a01b0316815260200190815260200160002060008e6001600160a01b03166001600160a01b0316815260200190815260200160002060010154612cdb90919063ffffffff16565b612a7a91906150c1565b60a084015260c083015160405163fc57d4df60e01b81526001600160a01b0391821660048201529083169063fc57d4df9060240160206040518083038186803b158015612ac657600080fd5b505afa158015612ada573d6000803e3d6000fd5b505050506040513d601f19601f82011682018060405250810190612afe9190614f2d565b6101008401819052604080518082019091526002815261313960f01b602082015290612b3d5760405162461bcd60e51b815260040161036e9190615057565b508260c001516001600160a01b0316896001600160a01b03161415612b88578683608001818151612b6e91906150c1565b905250610100830151612b82908990612cdb565b60408401525b61010083015160a0840151612b9c91612cdb565b60a08401526101008301516080840151612bb591612cdb565b83518490612bc49083906150c1565b90525060a0830151606084018051612bdd9083906150c1565b90525060105460c0840151604051638e8f294b60e01b81526001600160a01b0391821660048201526000929190911690638e8f294b90602401606060405180830381600087803b158015612c3057600080fd5b505af1158015612c44573d6000803e3d6000fd5b505050506040513d601f19601f82011682018060405250810190612c689190614ecd565b5060a0860151909250612c7c915082612cdb565b84602001818151612c8d91906150c1565b905250819050612c9c8161526e565b91505061275e565b50816040015182606001818151612cbb9190615208565b905250508051602082015160609092015190999198509650945050505050565b6000670de0b6b3a764000061252483856151e9565b601154604051637c01394b60e11b81526001600160a01b0380871660048301528692169063f802729690602401602060405180830381600087803b158015612d3757600080fd5b505af1158015612d4b573d6000803e3d6000fd5b505050506040513d601f19601f82011682018060405250810190612d6f9190614eb2565b604051806040016040528060018152602001600d60fa1b81525090612da75760405162461bcd60e51b815260040161036e9190615057565b506040805180820190915260018152603760f81b602082015284612dde5760405162461bcd60e51b815260040161036e9190615057565b50612dec8386866000612094565b846001600160a01b0316836001600160a01b03167fd1c19fbcd4551a5edfb66d43d2e337c04837afda3482b42bdf569a8fccdae5fb86604051612e3191815260200190565b60405180910390a360008590506000816001600160a01b0316636f307dc36040518163ffffffff1660e01b815260040160206040518083038186803b158015612e7957600080fd5b505afa158015612e8d573d6000803e3d6000fd5b505050506040513d601f19601f82011682018060405250810190612eb19190614d1a565b90506000826001600160a01b031663bd6d894d6040518163ffffffff1660e01b8152600401602060405180830381600087803b158015612ef057600080fd5b505af1158015612f04573d6000803e3d6000fd5b505050506040513d601f19601f82011682018060405250810190612f289190614f2d565b6001600160a01b03808a166000908152600a60209081526040808320938b168352929052206001015490915087901561317f576001600160a01b03808a166000908152600a60209081526040808320938b16835292905290812060010154612f909084612cdb565b905080891161303c57612fa38a8a6143d5565b612fad89846124f2565b6001600160a01b03808c166000908152600a60209081526040808320938d1683529290529081206001018054909190612fe7908490615208565b92505081905550896001600160a01b0316886001600160a01b03166000805160206153048339815191526000808d6000808a60405161302b9695949392919061502f565b60405180910390a36000915061317d565b6001600160a01b038a81166000908152600a602090815260408083208c851684529091529081902060010154905163db006a7560e01b81529187169163db006a759161308e9160040190815260200190565b602060405180830381600087803b1580156130a857600080fd5b505af11580156130bc573d6000803e3d6000fd5b505050506040513d601f19601f820116820180604052508101906130e09190614f2d565b156131125760405162461bcd60e51b8152602060048201526002602482015261031360f41b604482015260640161036e565b6001600160a01b03808b166000818152600a60209081526040808320948d168084529490915280822060010182905551919291600080516020615304833981519152916131689181908790829081908c9061502f565b60405180910390a361317a818a615208565b91505b505b80156134525760115460405163303e07b560e11b81526001600160a01b038b81166004830152600092169063607c0f6a90602401602060405180830381600087803b1580156131cd57600080fd5b505af11580156131e1573d6000803e3d6000fd5b505050506040513d601f19601f820116820180604052508101906132059190614f2d565b6040516370a0823160e01b815230600482015290915060009061328a9085906001600160a01b038916906370a0823190602401602060405180830381600087803b15801561325257600080fd5b505af1158015613266573d6000803e3d6000fd5b505050506040513d601f19601f820116820180604052508101906110529190614f2d565b90508083116133625761329d8b846120ee565b156132cf5760405162461bcd60e51b8152602060048201526002602482015261313160f01b604482015260640161036e565b6132d983836124f2565b6001600160a01b03808d166000908152600a60209081526040808320938e1683529290529081208054909190613310908490615208565b925050819055508a6001600160a01b0316896001600160a01b03166000805160206153048339815191526000806000888860006040516133559695949392919061502f565b60405180910390a361344f565b600061336e8c836120ee565b905061337a84846124f2565b6001600160a01b03808e166000908152600a60209081526040808320938f16835292905290812080549091906133b1908490615208565b925050819055508b6001600160a01b03168a6001600160a01b03166000805160206153048339815191526000806000898960006040516133f69695949392919061502f565b60405180910390a36134088185615208565b93506134148c85614740565b604080518082019091526002815261313160f01b6020820152901561344c5760405162461bcd60e51b815260040161036e9190615057565b50505b50505b61345c8988613e28565b6134706001600160a01b038416878a612616565b505050505050505050565b6040516001600160a01b03808516602483015283166044820152606481018290526126109085906323b872dd60e01b90608401612642565b6000808390506000816001600160a01b0316636f307dc36040518163ffffffff1660e01b815260040160206040518083038186803b1580156134f457600080fd5b505afa158015613508573d6000803e3d6000fd5b505050506040513d601f19601f8201168201806040525081019061352c9190614d1a565b60115460405163303e07b560e11b81526001600160a01b0388811660048301528796509293506000929091169063607c0f6a90602401602060405180830381600087803b15801561357c57600080fd5b505af1158015613590573d6000803e3d6000fd5b505050506040513d601f19601f820116820180604052508101906135b49190614f2d565b90506000836001600160a01b031663aa5af0fd6040518163ffffffff1660e01b8152600401602060405180830381600087803b1580156135f357600080fd5b505af1158015613607573d6000803e3d6000fd5b505050506040513d601f19601f8201168201806040525081019061362b9190614f2d565b6001600160a01b0388166000908152600560205260408082209051631573ce1f60e11b815260048101919091529192509073__$d77881dafef155fbaa5a836424b2a25249$__90632ae79c3e90602401604080518083038186803b15801561369257600080fd5b505af41580156136a6573d6000803e3d6000fd5b505050506040513d601f19601f820116820180604052508101906136ca9190614f46565b91505060005b6000871180156136e857506001600160a01b03821615155b80156136f9575060015461ffff1681105b1561391457806137088161526e565b6001600160a01b03808c166000908152600b6020908152604080832093881683529290529081206001015491935091506137429085612cdb565b9050600088821161377f57506001600160a01b03808b166000908152600b60209081526040808320938716835292905290812060010155806137cb565b508761378b81866124f2565b6001600160a01b03808d166000908152600b60209081526040808320938916835292905290812060010180549091906137c5908490615208565b90915550505b6137d5818a615208565b98506137e181876124f2565b6001600160a01b03808d166000908152600b60209081526040808320938916835292905290812080549091906138189084906150c1565b9091555061382890508b85612537565b8a6001600160a01b0316846001600160a01b03166000805160206152e48339815191526000848560008c8c6040516138659695949392919061502f565b60405180910390a36001600160a01b038b16600090815260056020526040908190209051631573ce1f60e11b8152600481019190915273__$d77881dafef155fbaa5a836424b2a25249$__90632ae79c3e90602401604080518083038186803b1580156138d157600080fd5b505af41580156138e5573d6000803e3d6000fd5b505050506040513d601f19601f820116820180604052508101906139099190614f46565b94506136d092505050565b60006139a1613923898b615208565b6040516305eff7ef60e21b81523060048201526001600160a01b038a16906317bfdfbc90602401602060405180830381600087803b15801561396457600080fd5b505af1158015613978573d6000803e3d6000fd5b505050506040513d601f19601f8201168201806040525081019061399c9190614f2d565b614b5d565b90506139b76001600160a01b0387168b83613f01565b60405163073a938160e11b8152600481018290526001600160a01b03881690630e75270290602401602060405180830381600087803b1580156139f957600080fd5b505af1158015613a0d573d6000803e3d6000fd5b505050506040513d601f19601f82011682018060405250810190613a319190614f2d565b604080518082019091526002815261062760f31b60208201529015613a695760405162461bcd60e51b815260040161036e9190615057565b505050505050505092915050565b81816000826001600160a01b0316636f307dc36040518163ffffffff1660e01b815260040160206040518083038186803b158015613ab457600080fd5b505afa158015613ac8573d6000803e3d6000fd5b505050506040513d601f19601f82011682018060405250810190613aec9190614d1a565b90506000816001600160a01b031663313ce5676040518163ffffffff1660e01b815260040160206040518083038186803b158015613b2957600080fd5b505afa158015613b3d573d6000803e3d6000fd5b505050506040513d601f19601f82011682018060405250810190613b619190614f6b565b9050600860ff82161115613ce057613b7a60088261521f565b613b8590600a61513e565b613b909060026151e9565b831115613cdb5760008690506000816001600160a01b0316636f307dc36040518163ffffffff1660e01b815260040160206040518083038186803b158015613bd757600080fd5b505afa158015613beb573d6000803e3d6000fd5b505050506040513d601f19601f82011682018060405250810190613c0f9190614d1a565b9050613c256001600160a01b0382168989613f01565b60405163140e25ad60e31b8152600481018890526001600160a01b0383169063a0712d6890602401602060405180830381600087803b158015613c6757600080fd5b505af1158015613c7b573d6000803e3d6000fd5b505050506040513d601f19601f82011682018060405250810190613c9f9190614f2d565b604080518082019091526002815261189b60f11b60208201529015613cd75760405162461bcd60e51b815260040161036e9190615057565b5050505b613e20565b60008690506000816001600160a01b0316636f307dc36040518163ffffffff1660e01b815260040160206040518083038186803b158015613d2057600080fd5b505afa158015613d34573d6000803e3d6000fd5b505050506040513d601f19601f82011682018060405250810190613d589190614d1a565b9050613d6e6001600160a01b0382168989613f01565b60405163140e25ad60e31b8152600481018890526001600160a01b0383169063a0712d6890602401602060405180830381600087803b158015613db057600080fd5b505af1158015613dc4573d6000803e3d6000fd5b505050506040513d601f19601f82011682018060405250810190613de89190614f2d565b604080518082019091526002815261189b60f11b602082015290156134705760405162461bcd60e51b815260040161036e9190615057565b505050505050565b600f546040516001600160a01b0384811660248301528381166044830152600092169060640160408051601f198184030181529181526020820180516001600160e01b031663f0a0015f60e01b17905251613e839190614f8e565b600060405180830381855af49150503d8060008114613ebe576040519150601f19603f3d011682016040523d82523d6000602084013e613ec3565b606091505b5050905080604051806040016040528060028152602001610c4d60f21b815250906126105760405162461bcd60e51b815260040161036e9190615057565b801580613f8a5750604051636eb1769f60e11b81523060048201526001600160a01b03838116602483015284169063dd62ed3e9060440160206040518083038186803b158015613f5057600080fd5b505afa158015613f64573d6000803e3d6000fd5b505050506040513d601f19601f82011682018060405250810190613f889190614f2d565b155b613ff55760405162461bcd60e51b815260206004820152603660248201527f5361666545524332303a20617070726f76652066726f6d206e6f6e2d7a65726f60448201527520746f206e6f6e2d7a65726f20616c6c6f77616e636560501b606482015260840161036e565b6040516001600160a01b03831660248201526044810182905261267990849063095ea7b360e01b90606401612642565b6000808390508291506000816001600160a01b031663bd6d894d6040518163ffffffff1660e01b8152600401602060405180830381600087803b15801561406b57600080fd5b505af115801561407f573d6000803e3d6000fd5b505050506040513d601f19601f820116820180604052508101906140a39190614f2d565b60115460405163303e07b560e11b81526001600160a01b0388811660048301529293506000929091169063607c0f6a90602401602060405180830381600087803b1580156140f057600080fd5b505af1158015614104573d6000803e3d6000fd5b505050506040513d601f19601f820116820180604052508101906141289190614f2d565b6001600160a01b0387166000908152600260205260408082209051631573ce1f60e11b815260048101919091529192509073__$d77881dafef155fbaa5a836424b2a25249$__90632ae79c3e90602401604080518083038186803b15801561418f57600080fd5b505af41580156141a3573d6000803e3d6000fd5b505050506040513d601f19601f820116820180604052508101906141c79190614f46565b9150505b6000851180156141e357506001600160a01b03811615155b156143b8576001600160a01b038088166000908152600a602090815260408083209385168352929052908120549061422461421e8386612cdb565b88614b5d565b90506142308188615208565b965061423c81866124f2565b6001600160a01b03808b166000908152600a60209081526040808320938816835292905290812060010180549091906142769084906150c1565b90915550614286905081856124f2565b6001600160a01b03808b166000908152600a60209081526040808320938816835292905290812080549091906142bd908490615208565b909155506142cd90508984613e28565b886001600160a01b0316836001600160a01b031660008051602061530483398151915283600080868a8c6040516143099695949392919061502f565b60405180910390a36001600160a01b038916600090815260026020526040908190209051631573ce1f60e11b8152600481019190915273__$d77881dafef155fbaa5a836424b2a25249$__90632ae79c3e90602401604080518083038186803b15801561437557600080fd5b505af4158015614389573d6000803e3d6000fd5b505050506040513d601f19601f820116820180604052508101906143ad9190614f46565b93506141cb92505050565b6143cb876143c68789615208565b613a77565b5050505092915050565b81816000826001600160a01b0316636f307dc36040518163ffffffff1660e01b815260040160206040518083038186803b15801561441257600080fd5b505afa158015614426573d6000803e3d6000fd5b505050506040513d601f19601f8201168201806040525081019061444a9190614d1a565b90506000816001600160a01b031663313ce5676040518163ffffffff1660e01b815260040160206040518083038186803b15801561448757600080fd5b505afa15801561449b573d6000803e3d6000fd5b505050506040513d601f19601f820116820180604052508101906144bf9190614f6b565b9050600860ff821611156145b0576144d860088261521f565b6144e390600a61513e565b6144ee9060026151e9565b831115613cdb5760405163852a12e360e01b81526004810186905286906001600160a01b0382169063852a12e390602401602060405180830381600087803b15801561453957600080fd5b505af115801561454d573d6000803e3d6000fd5b505050506040513d601f19601f820116820180604052508101906145719190614f2d565b604080518082019091526002815261313760f01b602082015290156145a95760405162461bcd60e51b815260040161036e9190615057565b5050613e20565b60405163852a12e360e01b81526004810186905286906001600160a01b0382169063852a12e390602401602060405180830381600087803b1580156145f457600080fd5b505af1158015614608573d6000803e3d6000fd5b505050506040513d601f19601f8201168201806040525081019061462c9190614f2d565b604080518082019091526002815261313760f01b602082015290156146645760405162461bcd60e51b815260040161036e9190615057565b5050505050505050565b60006146c3826040518060400160405280602081526020017f5361666545524332303a206c6f772d6c6576656c2063616c6c206661696c6564815250856001600160a01b0316614b739092919063ffffffff16565b80519091501561267957808060200190518101906146e19190614eb2565b6126795760405162461bcd60e51b815260206004820152602a60248201527f5361666545524332303a204552433230206f7065726174696f6e20646964206e6044820152691bdd081cdd58d8d9595960b21b606482015260840161036e565b60115460405163303e07b560e11b81526001600160a01b038085166004830152839285926000929091169063607c0f6a90602401602060405180830381600087803b15801561478e57600080fd5b505af11580156147a2573d6000803e3d6000fd5b505050506040513d601f19601f820116820180604052508101906147c69190614f2d565b90506000826001600160a01b031663aa5af0fd6040518163ffffffff1660e01b8152600401602060405180830381600087803b15801561480557600080fd5b505af1158015614819573d6000803e3d6000fd5b505050506040513d601f19601f8201168201806040525081019061483d9190614f2d565b6001600160a01b03871660009081526004602081905260408083209051631573ce1f60e11b8152918201529192509073__$d77881dafef155fbaa5a836424b2a25249$__90632ae79c3e90602401604080518083038186803b1580156148a257600080fd5b505af41580156148b6573d6000803e3d6000fd5b505050506040513d601f19601f820116820180604052508101906148da9190614f46565b9150505b6000851180156148f657506001600160a01b03811615155b15614aca576001600160a01b038088166000908152600b602090815260408083209385168352929052908120549061493161421e8387612cdb565b905061493d8188615208565b965061494981856124f2565b6001600160a01b03808b166000908152600b60209081526040808320938816835292905290812060010180549091906149839084906150c1565b90915550614993905081866124f2565b6001600160a01b03808b166000908152600b60209081526040808320938816835292905290812080549091906149ca908490615208565b909155506149da90508984612537565b886001600160a01b0316836001600160a01b03166000805160206152e483398151915283600080868b8b604051614a169695949392919061502f565b60405180910390a36001600160a01b0389166000908152600460208190526040918290209151631573ce1f60e11b815273__$d77881dafef155fbaa5a836424b2a25249$__92632ae79c3e92614a70920190815260200190565b604080518083038186803b158015614a8757600080fd5b505af4158015614a9b573d6000803e3d6000fd5b505050506040513d601f19601f82011682018060405250810190614abf9190614f46565b93506148de92505050565b6001600160a01b03841663c5ebeaec614ae38789615208565b6040518263ffffffff1660e01b8152600401614b0191815260200190565b602060405180830381600087803b158015614b1b57600080fd5b505af1158015614b2f573d6000803e3d6000fd5b505050506040513d601f19601f82011682018060405250810190614b539190614f2d565b156143cb57600080fd5b6000818310614b6c578161252e565b5090919050565b6060614b828484600085614b8c565b90505b9392505050565b606082471015614bed5760405162461bcd60e51b815260206004820152602660248201527f416464726573733a20696e73756666696369656e742062616c616e636520666f6044820152651c8818d85b1b60d21b606482015260840161036e565b843b614c3b5760405162461bcd60e51b815260206004820152601d60248201527f416464726573733a2063616c6c20746f206e6f6e2d636f6e7472616374000000604482015260640161036e565b600080866001600160a01b03168587604051614c579190614f8e565b60006040518083038185875af1925050503d8060008114614c94576040519150601f19603f3d011682016040523d82523d6000602084013e614c99565b606091505b5091509150614ca9828286614cb4565b979650505050505050565b60608315614cc3575081614b85565b825115614cd35782518084602001fd5b8160405162461bcd60e51b815260040161036e9190615057565b80518015158114610a6657600080fd5b600060208284031215614d0f57600080fd5b8135614b85816152cb565b600060208284031215614d2c57600080fd5b8151614b85816152cb565b60008060408385031215614d4a57600080fd5b8235614d55816152cb565b91506020830135614d65816152cb565b809150509250929050565b60008060008060808587031215614d8657600080fd5b8435614d91816152cb565b93506020850135614da1816152cb565b92506040850135614db1816152cb565b9396929550929360600135925050565b60008060408385031215614dd457600080fd5b8235614ddf816152cb565b946020939093013593505050565b60006020808385031215614e0057600080fd5b825167ffffffffffffffff80821115614e1857600080fd5b818501915085601f830112614e2c57600080fd5b815181811115614e3e57614e3e6152b5565b8060051b604051601f19603f83011681018181108582111715614e6357614e636152b5565b604052828152858101935084860182860187018a1015614e8257600080fd5b600095505b83861015614ea5578051855260019590950194938601938601614e87565b5098975050505050505050565b600060208284031215614ec457600080fd5b61252e82614ced565b600080600060608486031215614ee257600080fd5b614eeb84614ced565b925060208401519150614f0060408501614ced565b90509250925092565b600060208284031215614f1b57600080fd5b813561ffff81168114614b8557600080fd5b600060208284031215614f3f57600080fd5b5051919050565b60008060408385031215614f5957600080fd5b825191506020830151614d65816152cb565b600060208284031215614f7d57600080fd5b815160ff81168114614b8557600080fd5b60008251614fa0818460208701615242565b9190910192915050565b6020808252825182820181905260009190848201906040850190845b81811015614feb5783516001600160a01b031683529284019291840191600101614fc6565b50909695505050505050565b6020808252825182820181905260009190848201906040850190845b81811015614feb57835183529284019291840191600101615013565b958652602086019490945260408501929092526060840152608083015260a082015260c00190565b6020815260008251806020840152615076816040850160208701615242565b601f01601f19169190910160400192915050565b6020808252601f908201527f5265656e7472616e637947756172643a207265656e7472616e742063616c6c00604082015260600190565b600082198211156150d4576150d4615289565b500190565b6000826150f657634e487b7160e01b600052601260045260246000fd5b500490565b600181815b8085111561513657816000190482111561511c5761511c615289565b8085161561512957918102915b93841c9390800290615100565b509250929050565b600061252e60ff84168360008261515757506001612531565b8161516457506000612531565b816001811461517a5760028114615184576151a0565b6001915050612531565b60ff84111561519557615195615289565b50506001821b612531565b5060208310610133831016604e8410600b84101617156151c3575081810a612531565b6151cd83836150fb565b80600019048211156151e1576151e1615289565b029392505050565b600081600019048311821515161561520357615203615289565b500290565b60008282101561521a5761521a615289565b500390565b600060ff821660ff84168082101561523957615239615289565b90039392505050565b60005b8381101561525d578181015183820152602001615245565b838111156126105750506000910152565b600060001982141561528257615282615289565b5060010190565b634e487b7160e01b600052601160045260246000fd5b634e487b7160e01b600052603260045260246000fd5b634e487b7160e01b600052604160045260246000fd5b6001600160a01b03811681146152e057600080fd5b5056fe4f9349fd7715972a7cc95dd9408cad0be8ebe2c06da64217cbde369f80e49eb20cc380ae343b0c73a0d1a9c6bf7f938bc21f73a6e7f587e8b0e4f93c7bfe9105a264697066735822122046d7483fdb617c3c938e21218340a6069c1331aa529c84aefcccf2080b672e1e64736f6c63430008070033",
  "linkReferences": {
    "contracts/compound/libraries/RedBlackBinaryTree.sol": {
      "RedBlackBinaryTree": [
        {
          "length": 20,
          "start": 1754
        },
        {
          "length": 20,
          "start": 5875
        },
        {
          "length": 20,
          "start": 8992
        },
        {
          "length": 20,
          "start": 9567
        },
        {
          "length": 20,
          "start": 14176
        },
        {
          "length": 20,
          "start": 14751
        },
        {
          "length": 20,
          "start": 16989
        },
        {
          "length": 20,
          "start": 17475
        },
        {
          "length": 20,
          "start": 18800
        },
        {
          "length": 20,
          "start": 19274
        }
      ]
    }
  },
  "deployedLinkReferences": {
    "contracts/compound/libraries/RedBlackBinaryTree.sol": {
      "RedBlackBinaryTree": [
        {
          "length": 20,
          "start": 1496
        },
        {
          "length": 20,
          "start": 5617
        },
        {
          "length": 20,
          "start": 8734
        },
        {
          "length": 20,
          "start": 9309
        },
        {
          "length": 20,
          "start": 13918
        },
        {
          "length": 20,
          "start": 14493
        },
        {
          "length": 20,
          "start": 16731
        },
        {
          "length": 20,
          "start": 17217
        },
        {
          "length": 20,
          "start": 18542
        },
        {
          "length": 20,
          "start": 19016
        }
      ]
    }
  }
}